:100000000C943F000C945C000C945C000C945C001D
:100010000C945C000C945C000C945C000C945C00F0
:100020000C945C000C945C000C945C000C945C00E0
:100030000C945C000C9488010C945C000C945C00A3
:100040000C945C000C945C000C945C000C945C00C0
:100050000C945C000C945C000C945C000C945C00B0
:100060000C945C000C945C000C945C000C945C00A0
:100070000C945C000C945C000C945C00A9011124AD
:100080001FBECFEFD8E0DEBFCDBF21E0A0E0B1E0E2
:1000900001C01D92A730B207E1F710E0CFE3D0E036
:1000A00004C02197FE010E945203CE33D107C9F745
:1000B0000E9497010C9458030C9400000F93FC01CC
:1000C000718360832283038355834483FB014081D2
:1000D00081E090E0FC0102C0EE0FFF1F2A95E2F7DD
:1000E0009F01242B01C0880F0A95EAF7822BFB01A0
:1000F00080830F910895CF93DF93FC0161307105E8
:10010000E1F1F4F4672B09F069C0A481B5813C9159
:1001100081E090E0AC01028002C0440F551F0A94B8
:10012000E2F7242F209523232C93A481B5812C91D1
:10013000038002C0880F991F0A94E2F7822B4DC0FA
:100140006230710599F16330710509F047C0A481EF
:10015000B5812C9181E090E0AC01028002C0440F97
:10016000551F0A94E2F74095038002C0880F991F3B
:100170000A94E2F7842B822330C0A481B5812C91AC
:10018000CB01028002C0880F991F0A94E2F7822BEC
:100190008C93A481B5818C91038002C0660F771F78
:1001A0000A94E2F7609568236C9318C0EC0161E053
:1001B00070E00E947B008FE295E70197F1F700C0A5
:1001C000000060E070E0CE010E947B008FE097E2CB
:1001D0000197F1F700C0000001C08C93DF91CF912F
:1001E0000895CF93DF93EC01688170E080E090E0A8
:1001F0000E94570220E030E048EC52E40E94B60131
:1002000020E030E04FE753E40E94E5020E9428021C
:1002100070E07093890060938800698170E080E0ED
:1002200090E00E94570220E030E048EC52E40E9447
:10023000B60120E030E04FE753E40E94E5020E945F
:10024000280270E070938B0060938A0081EA8093AB
:10025000800082E08093810010928200DF91CF9134
:100260000895FC01672B11F4408301C041832111E3
:100270000C94F1000895FC01608341830C94F1001B
:10028000CF93DF9300D0CDB7DEB719821A82FC017D
:100290006081462FCE0101960E943B010F900F9086
:1002A000DF91CF910895FC01728361836081718138
:1002B00082810895FC01608360817181828108954B
:1002C000089578941092850010928400BC0180E01B
:1002D00090E00E94570220E030E543E454E40E949D
:1002E000E5020E942802709389006093880088E0EC
:1002F0008093800085E0809381001092820082E0EC
:1003000080936F0010920601089580910601089570
:100310001F920F920FB60F9211248F9381E080935A
:1003200006018F910F900FBE0F901F9018958FEFC1
:1003300081B98AB982E390E00E9461010E9485013F
:100340008823E1F361E070E080E091E00E947B00AF
:10035000F5CF0F9301E020E042E250E061E270E06F
:1003600080E091E00E945E000F9108950E94CA0112
:100370000C94AB020E94A40258F00E949D0240F02F
:1003800029F45F3F29F00C94940251110C94DF0280
:100390000C949A020E94BC0268F39923B1F355238E
:1003A00091F3951B550BBB27AA2762177307840788
:1003B00038F09F5F5F4F220F331F441FAA1FA9F31E
:1003C00035D00E2E3AF0E0E832D091505040E6950C
:1003D000001CCAF72BD0FE2F29D0660F771F881F6D
:1003E000BB1F261737074807AB07B0E809F0BB0B60
:1003F000802DBF01FF2793585F4F3AF09E3F510574
:1004000078F00C9494020C94DF025F3FE4F3983E82
:10041000D4F3869577956795B795F7959F5FC9F75C
:10042000880F911D9695879597F90895E1E0660FDD
:10043000771F881FBB1F621773078407BA0720F056
:10044000621B730B840BBA0BEE1F88F7E0950895BF
:100450000E94C40288F09F5798F0B92F9927B7518E
:10046000B0F0E1F0660F771F881F991F1AF0BA9558
:10047000C9F714C0B13091F00E94DE02B1E00895D6
:100480000C94DE02672F782F8827B85F39F0B93FC8
:10049000CCF3869577956795B395D9F73EF490950B
:1004A0008095709561957F4F8F4F9F4F0895E89489
:1004B00009C097FB3EF490958095709561957F4FAC
:1004C0008F4F9F4F9923A9F0F92F96E9BB2793955A
:1004D000F695879577956795B795F111F8CFFAF46A
:1004E000BB0F11F460FF1BC06F5F7F4F8F4F9F4F9B
:1004F00016C0882311F096E911C0772321F09EE8F9
:10050000872F762F05C0662371F096E8862F70E05E
:1005100060E02AF09A95660F771F881FDAF7880F38
:100520009695879597F9089597F99F6780E870E009
:1005300060E008959FEF80EC089500240A94161659
:10054000170618060906089500240A9412161306C1
:10055000140605060895092E0394000C11F488234F
:1005600052F0BB0F40F4BF2B11F460FF04C06F5F6B
:100570007F4F8F4F9F4F089557FD9058440F551F41
:1005800059F05F3F71F04795880F97FB991F61F015
:100590009F3F79F087950895121613061406551F8C
:1005A000F2CF4695F1DF08C0161617061806991FF8
:1005B000F1CF86957105610508940895E894BB27ED
:1005C00066277727CB0197F908950E94F8020C94CB
:1005D000AB020E949D0238F00E94A40220F09523F5
:1005E00011F00C9494020C949A0211240C94DF02E2
:1005F0000E94BC0270F3959FC1F3950F50E0551F08
:10060000629FF001729FBB27F00DB11D639FAA2767
:10061000F00DB11DAA1F649F6627B00DA11D661FB6
:10062000829F2227B00DA11D621F739FB00DA11DD7
:10063000621F839FA00D611D221F749F3327A00D91
:10064000611D231F849F600D211D822F762F6A2F2D
:1006500011249F5750409AF0F1F088234AF0EE0F92
:10066000FF1FBB1F661F771F881F91505040A9F7BF
:100670009E3F510580F00C9494020C94DF025F3F82
:10068000E4F3983ED4F3869577956795B795F795FB
:10069000E7959F5FC1F7FE2B880F911D9695879573
:1006A00097F90895EE0FFF1F0590F491E02D09943E
:0406B000F894FFCFEC
:00000001FF
